:020000023000CC
:10E000000D9489F10D94B2F10D94B2F10D94B2F129
:10E010000D94B2F10D94B2F10D94B2F10D94B2F1F0
:10E020000D94B2F10D94B2F10D94B2F10D94B2F1E0
:10E030000D94B2F10D94B2F10D94B2F10D94B2F1D0
:10E040000D94B2F10D94B2F10D94B2F10D94B2F1C0
:10E050000D94B2F10D94B2F10D94B2F10D94B2F1B0
:10E060000D94B2F10D94B2F10D94B2F10D94B2F1A0
:10E070000D94B2F10D94B2F10D94B2F10D94B2F190
:10E080000D94B2F10D94B2F10D94B2F10D94B2F180
:10E090000D94B2F10D94B2F10D94B2F10D94B2F170
:10E0A0000D94B2F10D94B2F10D94B2F10D94B2F160
:10E0B0000D94B2F10D94B2F10D94B2F10D94B2F150
:10E0C0000D94B2F10D94B2F10D94B2F10D94B2F140
:10E0D0000D94B2F10D94B2F10D94B2F10D94B2F130
:10E0E0000D94B2F12A00593D506F727420626C6930
:10E0F0006E6B00563D73686F7720696E746572723F
:10E1000075707420566563746F727300523D447568
:10E110006D702052414D00513D51756974004C3D68
:10E120004C69737420492F4F20506F7274730048EC
:10E130003D48656C7000463D44756D7020464C410D
:10E14000534800453D44756D7020454550524F4D34
:10E1500000423D426C696E6B204C454400403D4599
:10E160004550524F4D2074657374003F3D435055E8
:10E1700020737461747300303D5A65726F2061645E
:10E18000647200504F5254004545206572722063FE
:10E190006E743D0052656164696E672045450057A5
:10E1A00072697474696E672045450020004D75736F
:10E1B000742062652061206C657474657200506F14
:10E1C0007274206E6F7420737570706F72746564F2
:10E1D000005768617420706F72743A006A6D702025
:10E1E00000726A6D702020006E6F20766563746F18
:10E1F00072005623202020414444522020206F707A
:10E2000020636F64652020202020696E737472750E
:10E210006374696F6E2061646472202020496E749B
:10E2200065727275707400352E342E3000322E30C7
:10E230002E30004D61722031362032303232004CA7
:10E240006F636B20667573652020203D2000457844
:10E25000742066757365202020203D200048696782
:10E260006820667573652020203D20004C6F772064
:10E2700066757365202020203D20004350552049BD
:10E28000442020202020203D200047434320566585
:10E290007273696F6E203D2000415652204C6962B6
:10E2A00043205665723D20005F5F4156525F4152E8
:10E2B00043485F5F3D2000435055205479706520EE
:10E2C0002020203D2000436F6D70696C6564206FD5
:10E2D0006E203D20004875683F00426F6F746C6F80
:10E2E000616465723E0041726475696E6F20657885
:10E2F000706C6F7265722073746B353030563220DB
:10E300006279204D4C530041546D6567613235365A
:10E31000300011241FBECFEFD1E2DEBFCDBF01E040
:10E320000CBF12E0A0E0B2E0EAE9F7EF03E00BBFB8
:10E3300002C007900D92A430B107D9F722E0A4E003
:10E34000B2E001C01D92A231B207E1F70F94F8F2DA
:10E350000D94CBFB01E20EBF0FEF0DBF11241FBECA
:10E360000D94F8F20D9400F08093CE008091C800D7
:10E3700086FFFCCF8091C80080648093C800089518
:10E3800020E030E02817390749F0EFECF7E031974B
:10E39000F1F700C000002F5F3F4FF4CF08950F93B7
:10E3A0001F93CF93DF938C01D62FC8018D0F911D42
:10E3B000092E000CAA0BBB0BABBFFC01C791CC23F1
:10E3C00019F08C2F0F94B4F1DF5FC111EECFDF9104
:10E3D000CF911F910F9108958DE00F94B4F18AE0D1
:10E3E0000D94B4F10F94CFF10D94ECF1CF93DF9332
:10E3F000EC018991882319F00F94B4F1FACFDF91E1
:10E40000CF910895CF93C82F982F92959F7080E356
:10E41000890F8A3310F087E3890F0F94B4F1CF701E
:10E4200080E38C0F8A3310F087E38C0FCF910D942B
:10E43000B4F10F931F93CF93DF93EC018B018536DB
:10E4400091051CF4633071054CF0CE0164E670E078
:10E450000F9464FB80E3860F0F94B4F1CB30D105A9
:10E460001CF4023011056CF0CE0164E670E00F94EC
:10E4700064FB6AE070E00F9464FB80E3860F0F9406
:10E48000B4F1CE016AE070E00F9464FB805DDF912F
:10E49000CF911F910F910D94B4F18091C80087FF27
:10E4A000FCCF8091CE000895CF93C82F60E083E821
:10E4B00091EE0F94CFF18C2F0F94B4F1CF910D9476
:10E4C000ECF12F923F924F925F926F927F928F92D8
:10E4D0009F92AF92BF92CF92DF92EF92FF920F93F3
:10E4E0001F93CF93DF93CDB7DEB763970FB6F89442
:10E4F000DEBF0FBECDBF082F6A017B0180E1382E41
:10E5000010E04E0181E1880E911C91E0C916D10402
:10E51000E906F10418F08E2D0F9402F28D2D0F9460
:10E5200002F28C2D0F9402F280E20F94B4F18DE28E
:10E530000F94B4F180E20F94B4F11982FE01319688
:10E540005F01260137012E2EBB8A013051F028F0E1
:10E55000023059F4F201108108C06BBEF20117912C
:10E5600004C0C2010F94B5FB182F812F0F9402F243
:10E5700080E20F94B4F180EE810F8F3518F4F5012D
:10E58000108303C08EE2F50180839FEF491A590A78
:10E59000690A790AEFEFAE1ABE0AA814B904A9F6FF
:10E5A000F0E1CF0ED11CE11CF11C198A822D9B8950
:10E5B0000F94F6F10F94ECF13A943110A6CF6396D4
:10E5C0000FB6F894DEBF0FBECDBFDF91CF911F9184
:10E5D0000F91FF90EF90DF90CF90BF90AF909F9002
:10E5E0008F907F906F905F904F903F902F90089505
:10E5F000CF93DF93CDB7DEB7CE52D1400FB6F894AC
:10E60000DEBF0FBECDBF01E20EBF0FEF0DBF94B74F
:10E61000F894A89514BE8091600088618093600092
:10E6200010926000789493FF05C0E0910402F0918D
:10E6300005021995279A2F9A8091C80082608093CD
:10E64000C80080E18093CC0088E18093C90000007D
:10E6500000E010E0C12CD12C7601A7EC8A2EABE1B2
:10E660009A2EA12CB12C8091C80087FD26C00115DF
:10E67000110519F525E02A95F1F700003FEFC31ABF
:10E68000D30AE30AF30A91E080E041E2C4164EE4C3
:10E69000D406E104F10408F490E0092F182FC70113
:10E6A000B601A50194010F9478FB672B682B692BA9
:10E6B000D1F685B1805885B9D6CF0F5F1F4F013095
:10E6C000110511F00D943AFBC75DDE4F19821882D7
:10E6D000C952D140E12CF12CCA5DDE4F1882C652DE
:10E6E000D140712CC95DDE4F19821882C752D140CA
:10E6F000CE5DDE4F188219821A821B82C252D1402F
:10E70000812C912C540120E030E080E00130110593
:10E71000C1F041E052E16AE770E09091C80097FDD6
:10E7200010C04150510961097109B9F76BBFFA0175
:10E73000479156914F3F5F4F61F3EE27FF270994B2
:10E74000E8CF9091CE00C75DDE4FA881B981C95254
:10E75000D1401196C75DDE4FB983A883C952D1401D
:10E76000913209F008C51A9708F067C5BFEFEB1A98
:10E77000FB0AE3E0EE16F10409F061C5F5E0EF2EC7
:10E78000F12C09E110E081E20F94B4F1015011097C
:10E79000D1F70F94ECF1F1E0EF1AF10891F7109234
:10E7A0000E0210920F02109210021092110210929B
:10E7B0000A0210920B0210920C0210920D0210929B
:10E7C000060210920702109208021092090260E0FD
:10E7D00086EE92EE0F94F2F11FEF60E08AED92EE7A
:10E7E0000F94CFF10F944DF2082F803608F00F757B
:10E7F000003230F0802F0F94B4F180E20F94B4F126
:10E80000063409F4D7C108F09BC0003409F40CC1E8
:10E8100008F08FC0003309F4F1C00F3309F0A5C42C
:10E8200062E08BE691EE0F94F2F160E086EE92EEFC
:10E830000F94F2F160E086EC92EE0F94CFF160E07D
:10E8400083E392EE0F94F2F160E087EB92EE0F9487
:10E85000CFF160E087E093EE0F94F2F160E088EA98
:10E8600092EE0F94CFF186E30F94B4F10F94ECF194
:10E8700060E08AE892EE0F94CFF160E087E292EEDA
:10E880000F94F2F160E089E992EE0F94CFF160E02D
:10E890008DE292EE0F94F2F160E08BE792EE0F942E
:10E8A000CFF18EE10F9402F288E90F9402F281E039
:10E8B0000F9402F20F94ECF160E08CE692EE0F946C
:10E8C000CFF129E0E0E0F0E02093570084910F942D
:10E8D00002F20F94ECF160E08DE592EE0F94CFF12F
:10E8E00029E0E3E0F0E02093570084910F9402F2D6
:10E8F0000F94ECF160E08EE492EE0F94CFF1E2E041
:10E90000F0E039E03093570084910F9402F20F94B5
:10E91000ECF160E08FE392EE0F94CFF1E1E0F0E0F4
:10E9200049E04093570084910F9402F20F94ECF168
:10E9300054CF023409F4FAC0053409F411C115C4E6
:10E94000013509F49BC168F5083409F457C10C344A
:10E9500009F00BC462E08EE191EE0F94F2F181E4D4
:10E960000F9454F282E40F9454F283E40F9454F21F
:10E9700084E40F9454F285E40F9454F286E40F94E7
:10E9800054F287E40F9454F288E40F9454F28AE42A
:10E990000F9454F28BE40F9454F28CE40F9454F2DD
:10E9A0001CCF063509F474C1093509F4E4C20235F7
:10E9B00009F0DBC362E08CE091EE0F94F2F140913C
:10E9C0000E0250910F02609110027091110282E0CC
:10E9D0000F9461F280910E0290910F02A0911002AB
:10E9E000B09111029F5FAF4FBF4F80930E02909383
:10E9F0000F02A0931002B0931102EFCE62E087E7FE
:10EA000091EE0F94F2F110920A0210920B02109202
:10EA10000C0210920D0210920E0210920F02109230
:10EA200010021092110279C062E08DE591EE0F9410
:10EA3000F2F160E08FE991EE0F94F2F10F94ECF1B6
:10EA4000E12CF12CC7018A519D41092E000CAA0B23
:10EA5000BB0BABBFFC0107910A32B9F0E11462E0D5
:10EA6000F60699F0602FC7010F94BDFB011106C097
:10EA700060E08BEA91EE0F94CFF103C0802F0F94EA
:10EA8000B4F15FEFE51AF50ADDCF0F94ECF10F94C6
:10EA9000ECF160E084E991EE0F94F2F10F94ECF167
:10EAA000C12CD12CE12CF12CC7018A519D41092E9A
:10EAB000000CAA0BBB0BABBFFC0107910A32D9F0CB
:10EAC000E11492E0F906B9F0C7010F94B5FB782E76
:10EAD000811106C060E08BEA91EE0F94CFF102C085
:10EAE0000F94B4F1701619F07FEFC71AD70A8FEFA1
:10EAF000E81AF80AD9CF0F94ECF10F94ECF160E02A
:10EB000088E891EE0F94CFF161E070E0C6010F94B8
:10EB100019F20F94ECF10F94ECF11092060210929E
:10EB20000702109208021092090257CE62E081E5B6
:10EB300091EE0F94F2F1279A2F9A8091C80087FDE9
:10EB40000CC02F9884E690E00F94C0F12F9A84E6D1
:10EB500090E00F94C0F1F1CF12B80F944DF23DCE7A
:10EB600062E083E491EE0F94F2F14091060250913D
:10EB70000702609108027091090281E00F9461F22E
:10EB80008091060290910702A0910802B0910902BB
:10EB90009F5FAF4FBF4F8093060290930702A093F1
:10EBA0000802B093090281159041A105B10508F44E
:10EBB00014CEB3CF62E086E391EE0F94F2F1409170
:10EBC0000A0250910B0260910C0270910D0280E0DC
:10EBD0000F9461F280910A0290910B02A0910C02B5
:10EBE000B0910D029F5FAF4FBF4F80930A02909389
:10EBF0000B02A0930C02B0930D02EFCD62E08FE206
:10EC000091EE0F94F2F160E087E791EE0F94F2F14C
:10EC100060E08BE691EE0F94F2F160E08DE591EE0D
:10EC20000F94F2F160E081E591EE0F94F2F160E073
:10EC300083E491EE0F94F2F160E086E391EE0F949D
:10EC4000F2F160E08FE291EE0F94F2F160E08EE17C
:10EC500091EE0F94F2F160E087E191EE0F94F2F102
:10EC600060E08CE091EE0F94F2F160E083EF90EEC3
:10EC70000F94F2F160E086EE90EE7AC262E087E1F6
:10EC800091EE0F94F2F1E12CF12C66246394EAC228
:10EC900062E083EF90EE0F94F2F160E087E093EE94
:10ECA0000F94F2F160E082EF91EE0F94F2F1212CDB
:10ECB000312CC25EDE4F188219821A821B82CE511D
:10ECC000D140C25EDE4F288139814A815B81CE51BD
:10ECD000D1405695479537952795C55DDE4F2883DA
:10ECE00039834A835B83CB52D1403FEF231A330AE7
:10ECF00062E070E0C1010F9419F280E20F94B4F168
:10ED00008DE20F94B4F180E20F94B4F180E00F949F
:10ED100002F2C55DDE4F8881CB52D1400F9402F2E2
:10ED200080E20F94B4F18DE30F94B4F180E20F947C
:10ED3000B4F1C25EDE4F488159816A817B81CE5138
:10ED4000D1406BBFFA0107916A017B015FEFC51AE1
:10ED5000D50AE50AF50AEBBEF601E790C25EDE4F82
:10ED600088819981AA81BB81CE51D1400296A11D93
:10ED7000B11DABBFFC01D790C25EDE4F8881998187
:10ED8000AA81BB81CE51D1400396A11DB11DABBF5D
:10ED9000FC01F790C25EDE4F688179818A819B8198
:10EDA000CE51D1406C5F7F4F8F4F9F4FC25EDE4F81
:10EDB000688379838A839B83CE51D1404E2C512C1A
:10EDC000612C712C762C652C542C4424400E511C43
:10EDD000611C711C8E2D0F9402F280E20F94B4F12D
:10EDE000802F0F9402F280E20F94B4F18F2D0F94D4
:10EDF00002F280E20F94B4F18D2D0F9402F280E2C2
:10EE00000F94B4F17FEF471657066104710431F493
:10EE100060E088EE91EE0F94CFF1A5C0D301C2015E
:10EE20008827907CAA27BB278115904CA105B105A6
:10EE300049F573016201FFE3DF22EE24FF24C55D83
:10EE4000DE4F488059806A807B80CB52D1404C0C89
:10EE50005D1C6E1C7F1C440C551C661C771C60E0FE
:10EE600081EE91EE0F94CFF18D2D0F9402F28C2D47
:10EE70000F9402F280E20F94B4F18EE30F94B4F198
:10EE800080E069C02EE04222E89450F8662477249E
:10EE90003CE0431634E953066104710409F063C091
:10EEA000402F4170442E512C612C712CB2015527FA
:10EEB00044278F2D90E0A0E0B0E0BA2FA92F982F23
:10EEC00088278D0D911DA11DB11D2A013B01480E02
:10EED000591E6A1E7B1E802F807F90E0A0E0B0E06C
:10EEE000AC01BD0131E1440F551F661F771F3A95F4
:10EEF000D1F7D301C201840F951FA61FB71F2E2D76
:10EF00002170C22ED12CE12CF12C45E1CC0CDD1C62
:10EF1000EE1CFF1C4A95D1F7C80ED91EEA1EFB1E37
:10EF200026013701440C551C661C771C60E08CEDF3
:10EF300091EE0F94CFF18E2D0F9402F28D2D0F9440
:10EF400002F28C2D0F9402F280E20F94B4F18EE362
:10EF50000F94B4F1862D0F9402F2852D0F9402F2D6
:10EF6000842D0F9402F20F94ECF149E3241631043E
:10EF700009F0A7CE32CC62E086EE90EE0F94F2F16B
:10EF800060E081ED91EE0F94CFF10F944DF2082FD8
:10EF90000F75802F0F94B4F10F94ECF18FEB800F6D
:10EFA0008A3108F0DEC0063409F471C098F40334E5
:10EFB00009F441C038F4013419F1023409F0CDC02C
:10EFC00014B92BC0043409F445C0053409F0C5C098
:10EFD0001DB94FC00A3409F489C048F4073409F454
:10EFE00065C0083409F0B9C0109301016EC00B343C
:10EFF00009F48FC00C3409F0B0C010930A019CC012
:10F0000011B98091C80087FDA7CD82B1809582B9E2
:10F0100088EC90E00F94C0F1F4CF8091C80087FD98
:10F0200008C085B1809585B988EC90E00F94C0F157
:10F03000F4CF15B892CD17B98091C80087FD08C0EC
:10F0400088B1809588B988EC90E00F94C0F1F4CF36
:10F0500018B883CD1AB98091C80087FD08C08BB15C
:10F0600080958BB988EC90E00F94C0F1F4CF1BB879
:10F0700074CD8091C80087FD08C08EB180958EB98F
:10F0800088EC90E00F94C0F1F4CF1EB866CD10BBB1
:10F090008091C80087FD08C081B3809581BB88EC52
:10F0A00090E00F94C0F1F4CF11BA57CD13BB80910B
:10F0B000C80087FD08C084B3809584BB88EC90E0CD
:10F0C0000F94C0F1F4CF14BA48CD8091C80087FDE9
:10F0D0000AC08091020180958093020188EC90E043
:10F0E0000F94C0F1F2CF1092020137CD10930401BA
:10F0F0008091C80087FD0AC08091050180958093AA
:10F10000050188EC90E00F94C0F1F2CF1092050158
:10F1100024CD109307018091C80087FD0AC080911B
:10F12000080180958093080188EC90E00F94C0F16D
:10F13000F2CF1092080111CD8091C80087FD0AC05E
:10F1400080910B01809580930B0188EC90E00F94E7
:10F15000C0F1F2CF10920B0100CD60E08EEB91EE8A
:10F1600007C060E08DEA91EE03C060E085ED92EEAD
:10F170000F94F2F132CB833049F120F4813099F0D1
:10F1800050F01BC08530A9F138F1863009F064C019
:10F19000E12CF12C5EC0E12CF12C9B3109F47EC2F4
:10F1A00000E010E0B3CAE12CF12C7926CA5DDE4FF5
:10F1B0009883C652D14082E0F3CFE12CF12C292F65
:10F1C00030E0322F2227792683E0EACFE12CF12CA0
:10F1D000292B792684E0E4CF9E3009F063C279269A
:10F1E000E12CF12CC95DDE4F19821882C752D14043
:10F1F00022C0E12CF12CC95DDE4F48815981C752F4
:10F20000D1404F5F5F4FE1E0F0E0EC0FFD1FC95DC3
:10F21000DE4F68817981C752D140E60FF71F908396
:10F2200079262417350709F440C2C95DDE4F59839A
:10F230004883C752D14085E0B3CFE12CF12C833015
:10F2400039F208F43AC28530B1F208F43BC2863094
:10F2500029F4971137C205C0E12CF12C873009F051
:10F260009FCF612C2981233109F4D8C060F5263065
:10F2700009F4C6C0F8F4223009F4CEC0233009F4F2
:10F2800064C0213009F0AEC11A8288E08B8381E42A
:10F290008C8386E58D8382E58E8389E48F8383E585
:10F2A000888780E589878FE58A8782E38B870BE0F3
:10F2B00010E09CC1213109F455C008F094C0203100
:10F2C00009F4AAC08FC1283109F466C048F4253179
:10F2D00009F4A4C008F436C1263109F433C182C14F
:10F2E0002A3109F44DC008F46DC02B3109F43DC03A
:10F2F0002D3109F077C19D81903339F48F818823B6
:10F30000B1F08130B1F488E917C0892F807599F088
:10F31000903521F489E0E0E0F0E005C0983559F43B
:10F3200089E0E3E0F0E080935700849105C08EE12E
:10F3300003C081E001C080E01A821B829C831D8291
:10F340008E831F8207E010E051C1EA81E059E3306B
:10F3500028F4F0E0E050FE4F808101C080E01A8286
:10F360008B833EC06624639457C08D81882321F02F
:10F37000813021F488E924C08EE122C081E020C0E0
:10F380001A82E1E0F0E089E08093570084918B835A
:10F390001C8204E010E02AC18B81803559F48C81F5
:10F3A000883021F4E2E0F0E089E007C089E0E0E0A5
:10F3B000F0E003C089E0E3E0F0E08093570084913F
:10F3C0001A82E5CF8D81836C99E0E1E0F0E0082EB0
:10F3D00090935700E89507B600FCFDCF1A821B8278
:10F3E00003E010E003C180EC8A8302E010E0CE5D10
:10F3F000DE4F188219821A821B82C252D140F6C097
:10F400006A817B818C819D810F949AFB4B015C0109
:10F41000880C991CAA1CBB1C1A82E6C08A819B819D
:10F42000982789279827233109F060C0CE5DDE4FE9
:10F43000288139814A815B81C252D1402115304EE9
:10F440004340510528F523E0CE5DDE4F48815981C8
:10F450006A817B81C252D140FA0160935B002093A4
:10F460005700E89507B600FCFDCFCE5DDE4F288142
:10F4700039814A815B81C252D1403F5F4F4F5F4F1C
:10F48000CE5DDE4F288339834A835B83C252D140ED
:10F490002B85DE011196B501A40111E01B96EC91BC
:10F4A0001B9730E03E2B0901FA0160935B0010933B
:10F4B0005700E89511244E5F5F4F6F4F7F4F0297C3
:10F4C0001296009721F01A962C911A97E7CF35E003
:10F4D000F401A0925B0030935700E89507B600FC5A
:10F4E000FDCF81E180935700E89528C0FE01319659
:10F4F0009F01280F391FB501A40141BD252E362ECD
:10F50000472E552422BC4F5F5F4F6F4F7F4FA28520
:10F51000A0BDFA9AF99AF999FECF31962E173F07B6
:10F5200061F7AC014150510960E070E04F5F5F4FFF
:10F530006F4F7F4F480D591D6A1D7B1D1A824A016E
:10F540005B0152C08A819B819827892798278C016B
:10F550000D5F1F4F1A822431C1F4DE011196ABBE3C
:10F56000F4012791369112962C931297FD0134964F
:10F5700013963C93139742E0840E911CA11CB11C7E
:10F5800002971296009759F72BC0FE0131969F0102
:10F59000280F391FB501A40141BD252E362E472E57
:10F5A000552422BC4F5F5F4F6F4F7F4FF89AA0B535
:10F5B000A28331962E173F0779F7AC0141505109CC
:10F5C00060E070E04F5F5F4F6F4F7F4F840E951E7E
:10F5D000A61EB71EE3E0F0E0EC0FFD1FE80FF91FD9
:10F5E000108204C080EC8A8302E010E08BE10F946B
:10F5F000B4F1CA5DDE4F8881C652D1400F94B4F198
:10F60000812F0F94B4F1802F0F94B4F185E1CA5D7E
:10F61000DE4F7880C652D140782670268EE00F9457
:10F62000B4F17126BE016F5F7F4F6B01060F171F8C
:10F63000C016D10641F0D6015D906D01852D0F9465
:10F64000B4F17524F5CF872D0F94B4F1CA5DDE4F68
:10F65000B881C652D140BF5FCA5DDE4FB883C65283
:10F66000D14085B1805885B900E010E0662011F4E2
:10F670000D9483F327982F9884E690E00F94C0F1BF
:10F6800000008091C8008D7F8093C80081E1809345
:10F690005700E895EE27FF270994FFCF8BE1782EDE
:10F6A00081E07ECDE12CF12C0DC0C95DDE4F3983A8
:10F6B0002883C752D14086E073CD813009F475CDDF
:10F6C00008F07DCD80E06CCD97FB072E16F40094FA
:10F6D00007D077FD09D00F94A1FB07FC05D03EF4BD
:10F6E000909581959F4F0895709561957F4F0895EE
:10F6F000A1E21A2EAA1BBB1BFD010DC0AA1FBB1F36
:10F70000EE1FFF1FA217B307E407F50720F0A21BA7
:10F71000B30BE40BF50B661F771F881F991F1A9414
:10F7200069F760957095809590959B01AC01BD013E
:10F73000CF01089569279627692778278727782793
:10F740000895AA1BBB1B51E107C0AA1FBB1FA61728
:10F75000B70710F0A61BB70B881F991F5A95A9F77A
:10F7600080959095BC01CD010895F999FECF92BD89
:10F7700081BDF89A992780B50895262FF999FECF73
:10F780001FBA92BD81BD20BD0FB6F894FA9AF99ABE
:0AF790000FBE01960895F894FFCF14
:04F79A000F020A0050
:040000033000E000E9
:00000001FF
